{
  "_format": "hh-sol-artifact-1",
  "contractName": "Assessment",
  "sourceName": "contracts/Assessment.sol",
  "abi": [
    {
      "inputs": [
        {
          "internalType": "uint256",
          "name": "initBalance",
          "type": "uint256"
        }
      ],
      "stateMutability": "payable",
      "type": "constructor"
    },
    {
      "inputs": [
        {
          "internalType": "uint256",
          "name": "balance",
          "type": "uint256"
        },
        {
          "internalType": "uint256",
          "name": "withdrawAmount",
          "type": "uint256"
        }
      ],
      "name": "InsufficientBalance",
      "type": "error"
    },
    {
      "anonymous": false,
      "inputs": [
        {
          "indexed": false,
          "internalType": "uint256",
          "name": "amount",
          "type": "uint256"
        }
      ],
      "name": "Deposit",
      "type": "event"
    },
    {
      "anonymous": false,
      "inputs": [
        {
          "indexed": false,
          "internalType": "uint256",
          "name": "amount",
          "type": "uint256"
        }
      ],
      "name": "InterestAccrued",
      "type": "event"
    },
    {
      "anonymous": false,
      "inputs": [
        {
          "indexed": false,
          "internalType": "uint256",
          "name": "amount",
          "type": "uint256"
        }
      ],
      "name": "Withdraw",
      "type": "event"
    },
    {
      "inputs": [],
      "name": "MAX_DEPOSIT",
      "outputs": [
        {
          "internalType": "uint256",
          "name": "",
          "type": "uint256"
        }
      ],
      "stateMutability": "view",
      "type": "function"
    },
    {
      "inputs": [],
      "name": "MAX_WITHDRAWAL",
      "outputs": [
        {
          "internalType": "uint256",
          "name": "",
          "type": "uint256"
        }
      ],
      "stateMutability": "view",
      "type": "function"
    },
    {
      "inputs": [],
      "name": "balance",
      "outputs": [
        {
          "internalType": "uint256",
          "name": "",
          "type": "uint256"
        }
      ],
      "stateMutability": "view",
      "type": "function"
    },
    {
      "inputs": [],
      "name": "calculateInterest",
      "outputs": [
        {
          "internalType": "uint256",
          "name": "",
          "type": "uint256"
        }
      ],
      "stateMutability": "nonpayable",
      "type": "function"
    },
    {
      "inputs": [
        {
          "internalType": "uint256",
          "name": "_amount",
          "type": "uint256"
        }
      ],
      "name": "deposit",
      "outputs": [],
      "stateMutability": "payable",
      "type": "function"
    },
    {
      "inputs": [],
      "name": "getBalance",
      "outputs": [
        {
          "internalType": "uint256",
          "name": "",
          "type": "uint256"
        }
      ],
      "stateMutability": "view",
      "type": "function"
    },
    {
      "inputs": [],
      "name": "getInterestRate",
      "outputs": [
        {
          "internalType": "uint256",
          "name": "",
          "type": "uint256"
        }
      ],
      "stateMutability": "view",
      "type": "function"
    },
    {
      "inputs": [],
      "name": "getTransactionHistory",
      "outputs": [
        {
          "components": [
            {
              "internalType": "uint256",
              "name": "amount",
              "type": "uint256"
            },
            {
              "internalType": "uint256",
              "name": "timestamp",
              "type": "uint256"
            },
            {
              "internalType": "string",
              "name": "txType",
              "type": "string"
            },
            {
              "internalType": "uint256",
              "name": "balance",
              "type": "uint256"
            }
          ],
          "internalType": "struct Assessment.Transaction[]",
          "name": "",
          "type": "tuple[]"
        }
      ],
      "stateMutability": "view",
      "type": "function"
    },
    {
      "inputs": [],
      "name": "interestRate",
      "outputs": [
        {
          "internalType": "uint256",
          "name": "",
          "type": "uint256"
        }
      ],
      "stateMutability": "view",
      "type": "function"
    },
    {
      "inputs": [],
      "name": "lastInterestCalculation",
      "outputs": [
        {
          "internalType": "uint256",
          "name": "",
          "type": "uint256"
        }
      ],
      "stateMutability": "view",
      "type": "function"
    },
    {
      "inputs": [],
      "name": "owner",
      "outputs": [
        {
          "internalType": "address payable",
          "name": "",
          "type": "address"
        }
      ],
      "stateMutability": "view",
      "type": "function"
    },
    {
      "inputs": [
        {
          "internalType": "uint256",
          "name": "newRate",
          "type": "uint256"
        }
      ],
      "name": "setInterestRate",
      "outputs": [],
      "stateMutability": "nonpayable",
      "type": "function"
    },
    {
      "inputs": [
        {
          "internalType": "uint256",
          "name": "",
          "type": "uint256"
        }
      ],
      "name": "transactions",
      "outputs": [
        {
          "internalType": "uint256",
          "name": "amount",
          "type": "uint256"
        },
        {
          "internalType": "uint256",
          "name": "timestamp",
          "type": "uint256"
        },
        {
          "internalType": "string",
          "name": "txType",
          "type": "string"
        },
        {
          "internalType": "uint256",
          "name": "balance",
          "type": "uint256"
        }
      ],
      "stateMutability": "view",
      "type": "function"
    },
    {
      "inputs": [
        {
          "internalType": "uint256",
          "name": "_withdrawAmount",
          "type": "uint256"
        }
      ],
      "name": "withdraw",
      "outputs": [],
      "stateMutability": "nonpayable",
      "type": "function"
    }
  ],
  "bytecode": "0x608060405260405162001a2638038062001a268339818101604052810190620000299190620000c7565b336000806101000a81548173ffffffffffffffffffffffffffffffffffffffff021916908373ffffffffffffffffffffffffffffffffffffffff160217905550806001819055506101f46002819055504260038190555050620000f9565b600080fd5b6000819050919050565b620000a1816200008c565b8114620000ad57600080fd5b50565b600081519050620000c18162000096565b92915050565b600060208284031215620000e057620000df62000087565b5b6000620000f084828501620000b0565b91505092915050565b61191d80620001096000396000f3fe6080604052600436106100dd5760003560e01c806397ec642c1161007f578063b6b55f2511610059578063b6b55f25146102a1578063b76d4fc3146102bd578063dd5967c3146102e8578063eb0c495514610313576100dd565b806397ec642c1461020b5780639ace38c214610236578063b69ef8a814610276576100dd565b80635f84f302116100bb5780635f84f302146101615780637c3a00fd1461018a57806386f6a828146101b55780638da5cb5b146101e0576100dd565b806312065fe0146100e25780632e1a7d4d1461010d5780635257b56614610136575b600080fd5b3480156100ee57600080fd5b506100f761033e565b6040516101049190610d46565b60405180910390f35b34801561011957600080fd5b50610134600480360381019061012f9190610d92565b610348565b005b34801561014257600080fd5b5061014b61059e565b6040516101589190610d46565b60405180910390f35b34801561016d57600080fd5b5061018860048036038101906101839190610d92565b6105a8565b005b34801561019657600080fd5b5061019f610685565b6040516101ac9190610d46565b60405180910390f35b3480156101c157600080fd5b506101ca61068b565b6040516101d79190610d46565b60405180910390f35b3480156101ec57600080fd5b506101f5610691565b6040516102029190610e00565b60405180910390f35b34801561021757600080fd5b506102206106b5565b60405161022d9190610d46565b60405180910390f35b34801561024257600080fd5b5061025d60048036038101906102589190610d92565b6106c2565b60405161026d9493929190610eab565b60405180910390f35b34801561028257600080fd5b5061028b61078a565b6040516102989190610d46565b60405180910390f35b6102bb60048036038101906102b69190610d92565b610790565b005b3480156102c957600080fd5b506102d26109f4565b6040516102df9190611075565b60405180910390f35b3480156102f457600080fd5b506102fd610b03565b60405161030a9190610d46565b60405180910390f35b34801561031f57600080fd5b50610328610b10565b6040516103359190610d46565b60405180910390f35b6000600154905090565b60008054906101000a900473ffffffffffffffffffffffffffffffffffffffff1673ffffffffffffffffffffffffffffffffffffffff163373ffffffffffffffffffffffffffffffffffffffff16146103d6576040517f08c379a00000000000000000000000000000000000000000000000000000000081526004016103cd90611109565b60405180910390fd5b6802b5e3af16b1880000811115610422576040517f08c379a00000000000000000000000000000000000000000000000000000000081526004016104199061119b565b60405180910390fd5b6000600154905081600154101561047457600154826040517fcf47918100000000000000000000000000000000000000000000000000000000815260040161046b9291906111bb565b60405180910390fd5b81600160008282546104869190611213565b9250508190555081816104999190611213565b600154146104aa576104a9611247565b5b600460405180608001604052808481526020014281526020016040518060400160405280600a81526020017f5769746864726177616c00000000000000000000000000000000000000000000815250815260200160015481525090806001815401808255809150506001900390600052602060002090600402016000909190919091506000820151816000015560208201518160010155604082015181600201908161055691906114b1565b506060820151816003015550507f5b6b431d4476a211bb7d41c20d1aab9ae2321deee0d20be3d9fc9b1093fa6e3d826040516105929190610d46565b60405180910390a15050565b6000600254905090565b60008054906101000a900473ffffffffffffffffffffffffffffffffffffffff1673ffffffffffffffffffffffffffffffffffffffff163373ffffffffffffffffffffffffffffffffffffffff1614610636576040517f08c379a000000000000000000000000000000000000000000000000000000000815260040161062d906115cf565b60405180910390fd5b6103e881111561067b576040517f08c379a00000000000000000000000000000000000000000000000000000000081526004016106729061163b565b60405180910390fd5b8060028190555050565b60025481565b60035481565b60008054906101000a900473ffffffffffffffffffffffffffffffffffffffff1681565b6802b5e3af16b188000081565b600481815481106106d257600080fd5b9060005260206000209060040201600091509050806000015490806001015490806002018054610701906112d4565b80601f016020809104026020016040519081016040528092919081815260200182805461072d906112d4565b801561077a5780601f1061074f5761010080835404028352916020019161077a565b820191906000526020600020905b81548152906001019060200180831161075d57829003601f168201915b5050505050908060030154905084565b60015481565b60008054906101000a900473ffffffffffffffffffffffffffffffffffffffff1673ffffffffffffffffffffffffffffffffffffffff163373ffffffffffffffffffffffffffffffffffffffff161461081e576040517f08c379a000000000000000000000000000000000000000000000000000000000815260040161081590611109565b60405180910390fd5b68056bc75e2d6310000081111561086a576040517f08c379a0000000000000000000000000000000000000000000000000000000008152600401610861906116cd565b60405180910390fd5b68056bc75e2d631000008160015461088291906116ed565b11156108c3576040517f08c379a00000000000000000000000000000000000000000000000000000000081526004016108ba90611793565b60405180910390fd5b6000600154905081600160008282546108dc91906116ed565b9250508190555081816108ef91906116ed565b60015414610900576108ff611247565b5b600460405180608001604052808481526020014281526020016040518060400160405280600781526020017f4465706f7369740000000000000000000000000000000000000000000000000081525081526020016001548152509080600181540180825580915050600190039060005260206000209060040201600090919091909150600082015181600001556020820151816001015560408201518160020190816109ac91906114b1565b506060820151816003015550507f4d6ce1e535dbade1c23defba91e23b8f791ce5edc0cc320257a2b364e4e38426826040516109e89190610d46565b60405180910390a15050565b60606004805480602002602001604051908101604052809291908181526020016000905b82821015610afa57838290600052602060002090600402016040518060800160405290816000820154815260200160018201548152602001600282018054610a5f906112d4565b80601f0160208091040260200160405190810160405280929190818152602001828054610a8b906112d4565b8015610ad85780601f10610aad57610100808354040283529160200191610ad8565b820191906000526020600020905b815481529060010190602001808311610abb57829003601f168201915b5050505050815260200160038201548152505081526020019060010190610a18565b50505050905090565b68056bc75e2d6310000081565b60008060009054906101000a900473ffffffffffffffffffffffffffffffffffffffff1673ffffffffffffffffffffffffffffffffffffffff163373ffffffffffffffffffffffffffffffffffffffff1614610ba1576040517f08c379a0000000000000000000000000000000000000000000000000000000008152600401610b9890611825565b60405180910390fd5b600060035442610bb19190611213565b905060006301e13380905062015180821015610bd257600092505050610d2a565b600061271082610be29190611845565b83600254600154610bf39190611845565b610bfd9190611845565b610c0791906118b6565b90506000811115610d23578060016000828254610c2491906116ed565b92505081905550426003819055507fb513c5551ec27bc7a8ee110af7f5e62d803027afcbeb620fbee06aaefe65f08d81604051610c619190610d46565b60405180910390a1600460405180608001604052808381526020014281526020016040518060400160405280600881526020017f496e7465726573740000000000000000000000000000000000000000000000008152508152602001600154815250908060018154018082558091505060019003906000526020600020906004020160009091909190915060008201518160000155602082015181600101556040820151816002019081610d1591906114b1565b506060820151816003015550505b8093505050505b90565b6000819050919050565b610d4081610d2d565b82525050565b6000602082019050610d5b6000830184610d37565b92915050565b600080fd5b610d6f81610d2d565b8114610d7a57600080fd5b50565b600081359050610d8c81610d66565b92915050565b600060208284031215610da857610da7610d61565b5b6000610db684828501610d7d565b91505092915050565b600073ffffffffffffffffffffffffffffffffffffffff82169050919050565b6000610dea82610dbf565b9050919050565b610dfa81610ddf565b82525050565b6000602082019050610e156000830184610df1565b92915050565b600081519050919050565b600082825260208201905092915050565b60005b83811015610e55578082015181840152602081019050610e3a565b60008484015250505050565b6000601f19601f8301169050919050565b6000610e7d82610e1b565b610e878185610e26565b9350610e97818560208601610e37565b610ea081610e61565b840191505092915050565b6000608082019050610ec06000830187610d37565b610ecd6020830186610d37565b8181036040830152610edf8185610e72565b9050610eee6060830184610d37565b95945050505050565b600081519050919050565b600082825260208201905092915050565b6000819050602082019050919050565b610f2c81610d2d565b82525050565b600082825260208201905092915050565b6000610f4e82610e1b565b610f588185610f32565b9350610f68818560208601610e37565b610f7181610e61565b840191505092915050565b6000608083016000830151610f946000860182610f23565b506020830151610fa76020860182610f23565b5060408301518482036040860152610fbf8282610f43565b9150506060830151610fd46060860182610f23565b508091505092915050565b6000610feb8383610f7c565b905092915050565b6000602082019050919050565b600061100b82610ef7565b6110158185610f02565b93508360208202850161102785610f13565b8060005b8581101561106357848403895281516110448582610fdf565b945061104f83610ff3565b925060208a0199505060018101905061102b565b50829750879550505050505092915050565b6000602082019050818103600083015261108f8184611000565b905092915050565b7f596f7520617265206e6f7420746865206f776e6572206f66207468697320616360008201527f636f756e74000000000000000000000000000000000000000000000000000000602082015250565b60006110f3602583610e26565b91506110fe82611097565b604082019050919050565b60006020820190508181036000830152611122816110e6565b9050919050565b7f416d6f756e742065786365656473206d6178696d756d2077697468647261776160008201527f6c206c696d697400000000000000000000000000000000000000000000000000602082015250565b6000611185602783610e26565b915061119082611129565b604082019050919050565b600060208201905081810360008301526111b481611178565b9050919050565b60006040820190506111d06000830185610d37565b6111dd6020830184610d37565b9392505050565b7f4e487b7100000000000000000000000000000000000000000000000000000000600052601160045260246000fd5b600061121e82610d2d565b915061122983610d2d565b9250828203905081811115611241576112406111e4565b5b92915050565b7f4e487b7100000000000000000000000000000000000000000000000000000000600052600160045260246000fd5b7f4e487b7100000000000000000000000000000000000000000000000000000000600052604160045260246000fd5b7f4e487b7100000000000000000000000000000000000000000000000000000000600052602260045260246000fd5b600060028204905060018216806112ec57607f821691505b6020821081036112ff576112fe6112a5565b5b50919050565b60008190508160005260206000209050919050565b60006020601f8301049050919050565b600082821b905092915050565b6000600883026113677fffffffffffffffffffffffffffffffffffffffffffffffffffffffffffffffff8261132a565b611371868361132a565b95508019841693508086168417925050509392505050565b6000819050919050565b60006113ae6113a96113a484610d2d565b611389565b610d2d565b9050919050565b6000819050919050565b6113c883611393565b6113dc6113d4826113b5565b848454611337565b825550505050565b600090565b6113f16113e4565b6113fc8184846113bf565b505050565b5b81811015611420576114156000826113e9565b600181019050611402565b5050565b601f8211156114655761143681611305565b61143f8461131a565b8101602085101561144e578190505b61146261145a8561131a565b830182611401565b50505b505050565b600082821c905092915050565b60006114886000198460080261146a565b1980831691505092915050565b60006114a18383611477565b9150826002028217905092915050565b6114ba82610e1b565b67ffffffffffffffff8111156114d3576114d2611276565b5b6114dd82546112d4565b6114e8828285611424565b600060209050601f83116001811461151b5760008415611509578287015190505b6115138582611495565b86555061157b565b601f19841661152986611305565b60005b828110156115515784890151825560018201915060208501945060208101905061152c565b8683101561156e578489015161156a601f891682611477565b8355505b6001600288020188555050505b505050505050565b7f4f6e6c79206f776e65722063616e2073657420696e7465726573742072617465600082015250565b60006115b9602083610e26565b91506115c482611583565b602082019050919050565b600060208201905081810360008301526115e8816115ac565b9050919050565b7f496e74657265737420726174652063616e6e6f74206578636565642031302500600082015250565b6000611625601f83610e26565b9150611630826115ef565b602082019050919050565b6000602082019050818103600083015261165481611618565b9050919050565b7f416d6f756e742065786365656473206d6178696d756d206465706f736974206c60008201527f696d697400000000000000000000000000000000000000000000000000000000602082015250565b60006116b7602483610e26565b91506116c28261165b565b604082019050919050565b600060208201905081810360008301526116e6816116aa565b9050919050565b60006116f882610d2d565b915061170383610d2d565b925082820190508082111561171b5761171a6111e4565b5b92915050565b7f546f74616c2062616c616e636520776f756c6420657863656564206d6178696d60008201527f756d206c696d6974000000000000000000000000000000000000000000000000602082015250565b600061177d602883610e26565b915061178882611721565b604082019050919050565b600060208201905081810360008301526117ac81611770565b9050919050565b7f4f6e6c79206f776e65722063616e2063616c63756c61746520696e746572657360008201527f7400000000000000000000000000000000000000000000000000000000000000602082015250565b600061180f602183610e26565b915061181a826117b3565b604082019050919050565b6000602082019050818103600083015261183e81611802565b9050919050565b600061185082610d2d565b915061185b83610d2d565b925082820261186981610d2d565b915082820484148315176118805761187f6111e4565b5b5092915050565b7f4e487b7100000000000000000000000000000000000000000000000000000000600052601260045260246000fd5b60006118c182610d2d565b91506118cc83610d2d565b9250826118dc576118db611887565b5b82820490509291505056fea264697066735822122008f3f45aaa7af760308ab617e7fd34fa7c1088dacebb38e4cbf60acc6b162ac864736f6c63430008110033",
  "linkReferences": {},
  "deployedLinkReferences": {}
}